{
  "contractName": "Election",
  "abi": [
    {
      "inputs": [],
      "payable": false,
      "stateMutability": "nonpayable",
      "type": "constructor"
    },
    {
      "anonymous": false,
      "inputs": [
        {
          "indexed": true,
          "internalType": "uint256",
          "name": "_candidateId",
          "type": "uint256"
        }
      ],
      "name": "votedEvent",
      "type": "event"
    },
    {
      "constant": true,
      "inputs": [
        {
          "internalType": "uint256",
          "name": "",
          "type": "uint256"
        }
      ],
      "name": "candidates",
      "outputs": [
        {
          "internalType": "uint256",
          "name": "id",
          "type": "uint256"
        },
        {
          "internalType": "string",
          "name": "name",
          "type": "string"
        },
        {
          "internalType": "string",
          "name": "party",
          "type": "string"
        },
        {
          "internalType": "uint256",
          "name": "voteCount",
          "type": "uint256"
        }
      ],
      "payable": false,
      "stateMutability": "view",
      "type": "function"
    },
    {
      "constant": true,
      "inputs": [],
      "name": "candidatesCount",
      "outputs": [
        {
          "internalType": "uint256",
          "name": "",
          "type": "uint256"
        }
      ],
      "payable": false,
      "stateMutability": "view",
      "type": "function"
    },
    {
      "constant": true,
      "inputs": [
        {
          "internalType": "address",
          "name": "",
          "type": "address"
        }
      ],
      "name": "voters",
      "outputs": [
        {
          "internalType": "bool",
          "name": "",
          "type": "bool"
        }
      ],
      "payable": false,
      "stateMutability": "view",
      "type": "function"
    },
    {
      "constant": false,
      "inputs": [
        {
          "internalType": "uint256",
          "name": "_candidateId",
          "type": "uint256"
        }
      ],
      "name": "vote",
      "outputs": [],
      "payable": false,
      "stateMutability": "nonpayable",
      "type": "function"
    }
  ],
  "bytecode": "0x608060405234801561001057600080fd5b5061008b6040518060400160405280600a81526020017f52616a75204269737461000000000000000000000000000000000000000000008152506040518060400160405280601681526020017f426861726174697961204a616e617461205061727479000000000000000000008152506102d560201b60201c565b6101056040518060400160405280600e81526020017f53616e6b6172204d616c616b61720000000000000000000000000000000000008152506040518060400160405280601881526020017f496e6469616e204e6174696f6e616c20436f6e677265737300000000000000008152506102d560201b60201c565b6101626040518060400160405280600c81526020017f53616d616e2050617468616b000000000000000000000000000000000000000081525060405180606001604052806022815260200161091c602291396102d560201b60201c565b6101dc6040518060400160405280600e81526020017f416d61722053696e6768205261690000000000000000000000000000000000008152506040518060400160405280601c81526020017f416c6c20496e646961205472696e616d6f6f6c20436f6e6772657373000000008152506102d560201b60201c565b6102566040518060400160405280600c81526020017f5375646970204d616e64616c00000000000000000000000000000000000000008152506040518060400160405280601381526020017f426168756a616e2053616d616a205061727479000000000000000000000000008152506102d560201b60201c565b6102d06040518060400160405280600481526020017f4e4f5441000000000000000000000000000000000000000000000000000000008152506040518060400160405280601181526020017f4e6f6e65206f66207468652061626f76650000000000000000000000000000008152506102d560201b60201c565b61041a565b600260008154809291906001019190505550604051806080016040528060025481526020018381526020018281526020016000815250600160006002548152602001908152602001600020600082015181600001556020820151816001019080519060200190610346929190610375565b506040820151816002019080519060200190610363929190610375565b50606082015181600301559050505050565b828054600181600116156101000203166002900490600052602060002090601f016020900481019282601f106103b657805160ff19168380011785556103e4565b828001600101855582156103e4579182015b828111156103e35782518255916020019190600101906103c8565b5b5090506103f191906103f5565b5090565b61041791905b808211156104135760008160009055506001016103fb565b5090565b90565b6104f3806104296000396000f3fe608060405234801561001057600080fd5b506004361061004c5760003560e01c80630121b93f146100515780632d35a8a21461007f5780633477ee2e1461009d578063a3ec138d146101be575b600080fd5b61007d6004803603602081101561006757600080fd5b810190808035906020019092919050505061021a565b005b610087610338565b6040518082815260200191505060405180910390f35b6100c9600480360360208110156100b357600080fd5b810190808035906020019092919050505061033e565b604051808581526020018060200180602001848152602001838103835286818151815260200191508051906020019080838360005b838110156101195780820151818401526020810190506100fe565b50505050905090810190601f1680156101465780820380516001836020036101000a031916815260200191505b50838103825285818151815260200191508051906020019080838360005b8381101561017f578082015181840152602081019050610164565b50505050905090810190601f1680156101ac5780820380516001836020036101000a031916815260200191505b50965050505050505060405180910390f35b610200600480360360208110156101d457600080fd5b81019080803573ffffffffffffffffffffffffffffffffffffffff16906020019092919050505061049e565b604051808215151515815260200191505060405180910390f35b6000803373ffffffffffffffffffffffffffffffffffffffff1673ffffffffffffffffffffffffffffffffffffffff16815260200190815260200160002060009054906101000a900460ff161561027057600080fd5b60008111801561028257506002548111155b61028b57600080fd5b60016000803373ffffffffffffffffffffffffffffffffffffffff1673ffffffffffffffffffffffffffffffffffffffff16815260200190815260200160002060006101000a81548160ff0219169083151502179055506001600082815260200190815260200160002060030160008154809291906001019190505550807ffff3c900d938d21d0990d786e819f29b8d05c1ef587b462b939609625b684b1660405160405180910390a250565b60025481565b6001602052806000526040600020600091509050806000015490806001018054600181600116156101000203166002900480601f0160208091040260200160405190810160405280929190818152602001828054600181600116156101000203166002900480156103f05780601f106103c5576101008083540402835291602001916103f0565b820191906000526020600020905b8154815290600101906020018083116103d357829003601f168201915b505050505090806002018054600181600116156101000203166002900480601f01602080910402602001604051908101604052809291908181526020018280546001816001161561010002031660029004801561048e5780601f106104635761010080835404028352916020019161048e565b820191906000526020600020905b81548152906001019060200180831161047157829003601f168201915b5050505050908060030154905084565b60006020528060005260406000206000915054906101000a900460ff168156fea265627a7a72315820dbb5e8e9634460ad0ae46f5ca81e9ef63f11cdd949928fa93e3ac8f1af6c77d864736f6c63430005100032436f6d6d756e697374205061727479204f6620496e64696120284d61727869737429",
  "source": "pragma solidity >=0.5.16;\n\ncontract Election {\n    // Model a Candidate\n    struct Candidate {\n        uint id;\n        string name;\n        string party;\n        uint voteCount;\n    }\n\n    // Store accounts that have voted\n    mapping(address => bool) public voters;\n    // Store Candidates\n    // Fetch Candidate\n    mapping(uint => Candidate) public candidates;\n    // Store Candidates Count\n    uint public candidatesCount;\n\n    // voted event\n    event votedEvent (\n        uint indexed _candidateId\n    );\n\n    constructor () public {\n        addCandidate(\"Raju Bista\",\"Bharatiya Janata Party\");\n        addCandidate(\"Sankar Malakar\",\"Indian National Congress\");\n        addCandidate(\"Saman Pathak\",\"Communist Party Of India (Marxist)\");\n        addCandidate(\"Amar Singh Rai\",\"All India Trinamool Congress\");\n        addCandidate(\"Sudip Mandal\",\"Bahujan Samaj Party\");\n        addCandidate(\"NOTA\",\"None of the above\");\n    }\n\n    function addCandidate (string memory name,string memory party) private {\n        candidatesCount ++;\n        candidates[candidatesCount] = Candidate(candidatesCount, name,party, 0);\n    }\n\n    function vote (uint _candidateId) public {\n        // require that they haven't voted before\n        require(!voters[msg.sender]);\n\n        // require a valid candidate\n        require(_candidateId > 0 && _candidateId <= candidatesCount);\n\n        // record that voter has voted\n        voters[msg.sender] = true;\n\n        // update candidate vote Count\n        candidates[_candidateId].voteCount ++;\n\n        // trigger voted event\n        emit votedEvent(_candidateId);\n    }\n}",
  "sourcePath": "C:/Users/nikhi/OneDrive/Documents/Projects/Ethevote 2.0/contracts/Election.sol",
  "compiler": {
    "name": "solc",
    "version": "0.5.16+commit.9c3226ce.Emscripten.clang"
  },
  "schemaVersion": "3.4.1",
  "updatedAt": "2021-07-01T10:57:16.449Z",
  "networkType": "ethereum",
  "devdoc": {
    "methods": {}
  },
  "userdoc": {
    "methods": {}
  }
}